:020000000000fe
:0200010007fff7
:0200020007fef7
:0200030007fdf7
:0200040007fcf7
:0200050007fbf7
:0200060007faf7
:0200070007f9f7
:0200080007f8f7
:0200090007f7f7
:02000a0007f6f7
:02000b0007f5f7
:02000c0007f4f7
:02000d0007f3f7
:02000e0007f2f7
:02000f0007f1f7
:0200100007f0f7
:0200110007eff7
:0200120007eef7
:0200130007edf7
:0200140007ecf7
:0200150007ebf7
:0200160007eaf7
:0200170007e9f7
:0200180007e8f7
:0200190007e7f7
:02001a0007e6f7
:02001b0007e5f7
:02001c0007e4f7
:02001d0007e3f7
:02001e0007e2f7
:02001f0007e1f7
:0200200007e0f7
:0200210007dff7
:0200220007def7
:0200230007ddf7
:0200240007dcf7
:0200250007dbf7
:0200260007daf7
:0200270007d9f7
:0200280007d8f7
:0200290007d7f7
:02002a0007d6f7
:02002b0007d5f7
:02002c0007d4f7
:02002d0007d3f7
:02002e0007d2f7
:02002f0007d1f7
:0200300007d0f7
:0200310007cff7
:0200320007cef7
:0200330007cdf7
:0200340007ccf7
:0200350007cbf7
:0200360007caf7
:0200370007c9f7
:0200380007c8f7
:0200390007c7f7
:02003a0007c6f7
:02003b0007c5f7
:02003c0007c4f7
:02003d0007c3f7
:02003e0007c2f7
:02003f0007c1f7
:0200400007c0f7
:0200410007bff7
:0200420007bef7
:0200430007bdf7
:0200440007bcf7
:0200450007bbf7
:0200460007baf7
:0200470007b9f7
:0200480007b8f7
:0200490007b7f7
:02004a0007b6f7
:02004b0007b5f7
:02004c0007b4f7
:02004d0007b3f7
:02004e0007b2f7
:02004f0007b1f7
:0200500007b0f7
:0200510007aff7
:0200520007aef7
:0200530007adf7
:0200540007acf7
:0200550007abf7
:0200560007aaf7
:0200570007a9f7
:0200580007a8f7
:0200590007a7f7
:02005a0007a6f7
:02005b0007a5f7
:02005c0007a4f7
:02005d0007a3f7
:02005e0007a2f7
:02005f0007a1f7
:0200600007a0f7
:02006100079ff7
:02006200079ef7
:02006300079df7
:02006400079cf7
:02006500079bf7
:02006600079af7
:020067000799f7
:020068000798f7
:020069000797f7
:02006a000796f7
:02006b000795f7
:02006c000794f7
:02006d000793f7
:02006e000792f7
:02006f000791f7
:020070000790f7
:02007100078ff7
:02007200078ef7
:02007300078df7
:02007400078cf7
:02007500078bf7
:02007600078af7
:020077000789f7
:020078000788f7
:020079000787f7
:02007a000786f7
:02007b000785f7
:02007c000784f7
:02007d000783f7
:02007e000782f7
:02007f000781f7
:020080000780f7
:02008100077ff7
:02008200077ef7
:02008300077df7
:02008400077cf7
:02008500077bf7
:02008600077af7
:020087000779f7
:020088000778f7
:020089000777f7
:02008a000776f7
:02008b000775f7
:02008c000774f7
:02008d000773f7
:02008e000772f7
:02008f000771f7
:020090000770f7
:02009100076ff7
:02009200076ef7
:02009300076df7
:02009400076cf7
:02009500076bf7
:02009600076af7
:020097000769f7
:020098000768f7
:020099000767f7
:02009a000766f7
:02009b000765f7
:02009c000764f7
:02009d000763f7
:02009e000762f7
:02009f000761f7
:0200a0000760f7
:0200a100075ff7
:0200a200075ef7
:0200a300075df7
:0200a400075cf7
:0200a500075bf7
:0200a600075af7
:0200a7000759f7
:0200a8000758f7
:0200a9000757f7
:0200aa000756f7
:0200ab000755f7
:0200ac000754f7
:0200ad000753f7
:0200ae000752f7
:0200af000751f7
:0200b0000750f7
:0200b100074ff7
:0200b200074ef7
:0200b300074df7
:0200b400074cf7
:0200b500074bf7
:0200b600074af7
:0200b7000749f7
:0200b8000748f7
:0200b9000747f7
:0200ba000746f7
:0200bb000745f7
:0200bc000744f7
:0200bd000743f7
:0200be000742f7
:0200bf000741f7
:0200c0000740f7
:0200c100073ff7
:0200c200073ef7
:0200c300073df7
:0200c400073cf7
:0200c500073bf7
:0200c600073af7
:0200c7000739f7
:0200c8000738f7
:0200c9000737f7
:0200ca000736f7
:0200cb000735f7
:0200cc000734f7
:0200cd000733f7
:0200ce000732f7
:0200cf000731f7
:0200d0000730f7
:0200d100072ff7
:0200d200072ef7
:0200d300072df7
:0200d400072cf7
:0200d500072bf7
:0200d600072af7
:0200d7000729f7
:0200d8000728f7
:0200d9000727f7
:0200da000726f7
:0200db000725f7
:0200dc000724f7
:0200dd000723f7
:0200de000722f7
:0200df000721f7
:0200e0000720f7
:0200e100071ff7
:0200e200071ef7
:0200e300071df7
:0200e400071cf7
:0200e500071bf7
:0200e600071af7
:0200e7000719f7
:0200e8000718f7
:0200e9000717f7
:0200ea000716f7
:0200eb000715f7
:0200ec000714f7
:0200ed000713f7
:0200ee000712f7
:0200ef000711f7
:0200f0000710f7
:0200f100070ff7
:0200f200070ef7
:0200f300070df7
:0200f400070cf7
:0200f500070bf7
:0200f600070af7
:0200f7000709f7
:0200f8000708f7
:0200f9000707f7
:0200fa000706f7
:0200fb000705f7
:0200fc000704f7
:0200fd000703f7
:0200fe000702f7
:0200ff000701f7
:00000001ff
